:020000040000fa
:080000000002040000000000f2
:020000040000fa
:04000800c80200002a
:020000040000fa
:04000c00c802000026
:020000040000fa
:04001000c802000022
:020000040000fa
:04001400c80200001e
:020000040000fa
:04001800c80200001a
:020000040000fa
:04001c00c802000016
:020000040000fa
:04002000c802000012
:020000040000fa
:04002400c80200000e
:020000040000fa
:04002800c80200000a
:020000040000fa
:04002c00c802000006
:020000040000fa
:04003000c802000002
:020000040000fa
:04003400c8020000fe
:020000040000fa
:04003800c8020000fa
:020000040000fa
:04003c00c8020000f6
:020000040000fa
:04004000c8020000f2
:020000040000fa
:04004400c8020000ee
:020000040000fa
:04004800c8020000ea
:020000040000fa
:04004c00c8020000e6
:020000040000fa
:04005000c8020000e2
:020000040000fa
:04005400c8020000de
:020000040000fa
:04005800c8020000da
:020000040000fa
:04005c00c8020000d6
:020000040000fa
:04006000c8020000d2
:020000040000fa
:04006400c8020000ce
:020000040000fa
:04006800c8020000ca
:020000040000fa
:04006c00c8020000c6
:020000040000fa
:04007000c8020000c2
:020000040000fa
:04007400c8020000be
:020000040000fa
:04007800c8020000ba
:020000040000fa
:04007c00c8020000b6
:020000040000fa
:04008000c8020000b2
:020000040000fa
:04008400c8020000ae
:020000040000fa
:04008800c8020000aa
:020000040000fa
:04008c00c8020000a6
:020000040000fa
:04009000c8020000a2
:020000040000fa
:04009400c80200009e
:020000040000fa
:04009800c80200009a
:020000040000fa
:04009c00c802000096
:020000040000fa
:0400a000c802000092
:020000040000fa
:0400a400c80200008e
:020000040000fa
:0400a800c80200008a
:020000040000fa
:0400ac00c802000086
:020000040000fa
:0400b000c802000082
:020000040000fa
:0400b400c80200007e
:020000040000fa
:0400b800c80200007a
:020000040000fa
:0400bc00c802000076
:020000040000fa
:0400c000c802000072
:020000040000fa
:0400c400c80200006e
:020000040000fa
:0400c800c80200006a
:020000040000fa
:0400cc00c802000066
:020000040000fa
:0400d000c802000062
:020000040000fa
:0400d400c80200005e
:020000040000fa
:0400d800c80200005a
:020000040000fa
:0400dc00c802000056
:020000040000fa
:0400e000c802000052
:020000040000fa
:0400e400c80200004e
:020000040000fa
:0400e800c80200004a
:020000040000fa
:0400ec00c802000046
:020000040000fa
:0400f000c802000042
:020000040000fa
:0400f400c80200003e
:020000040000fa
:0400f800c80200003a
:020000040000fa
:0400fc00c802000036
:020000040000fa
:04010000c802000031
:020000040000fa
:04010400c80200002d
:020000040000fa
:04010800c802000029
:020000040000fa
:04010c00c802000025
:020000040000fa
:04011000c802000021
:020000040000fa
:04011400c80200001d
:020000040000fa
:04011800c802000019
:020000040000fa
:04011c00c802000015
:020000040000fa
:04012000c802000011
:020000040000fa
:04012400c80200000d
:020000040000fa
:04012800c802000009
:020000040000fa
:04012c00c802000005
:020000040000fa
:04013000c802000001
:020000040000fa
:04013400c8020000fd
:020000040000fa
:04020800c802000028
:020000040000fa
:04020c00c802000024
:020000040000fa
:04021000c802000020
:020000040000fa
:04021400c80200001c
:020000040000fa
:04021800c802000018
:020000040000fa
:04021c00c802000014
:020000040000fa
:04022000c802000010
:020000040000fa
:04022400c80200000c
:020000040000fa
:04022800c802000008
:020000040000fa
:04022c00c802000004
:020000040000fa
:04023000c802000000
:020000040000fa
:04023400c8020000fc
:020000040000fa
:04023800c8020000f8
:020000040000fa
:04023c00c8020000f4
:020000040000fa
:04024000c8020000f0
:020000040000fa
:04024400c8020000ec
:020000040000fa
:04024800c8020000e8
:020000040000fa
:04024c00c8020000e4
:020000040000fa
:04025000c8020000e0
:020000040000fa
:04025400c8020000dc
:020000040000fa
:04025800c8020000d8
:020000040000fa
:04025c00c8020000d4
:020000040000fa
:04026000c8020000d0
:020000040000fa
:04026400c8020000cc
:020000040000fa
:04026800c8020000c8
:020000040000fa
:04026c00c8020000c4
:020000040000fa
:04027000c8020000c0
:020000040000fa
:04027400c8020000bc
:020000040000fa
:04027800c8020000b8
:020000040000fa
:04027c00c8020000b4
:020000040000fa
:04028000c8020000b0
:020000040000fa
:04028400c8020000ac
:020000040000fa
:04028800c8020000a8
:020000040000fa
:04028c00c8020000a4
:020000040000fa
:04029000c8020000a0
:020000040000fa
:04029400c80200009c
:020000040000fa
:04029800c802000098
:020000040000fa
:04029c00c802000094
:020000040000fa
:0402a000c802000090
:020000040000fa
:0402a400c80200008c
:020000040000fa
:0402a800c802000088
:020000040000fa
:0402ac00c802000084
:020000040000fa
:0402b000c802000080
:020000040000fa
:0402b400c80200007c
:020000040000fa
:0402b800c802000078
:020000040000fa
:0402bc00c802000074
:020000040000fa
:0402c000c802000070
:020000040000fa
:0402c400c80200006c
:020000040000fa
:0402c800c802000068
:020000040000fa
:0402cc00c802000064
:020000040000fa
:0402d000c802000060
:020000040000fa
:0402d400c80200005c
:020000040000fa
:0402d800c802000058
:020000040000fa
:0402dc00c802000054
:020000040000fa
:0402e000c802000050
:020000040000fa
:0402e400c80200004c
:020000040000fa
:0402e800c802000048
:020000040000fa
:0402ec00c802000044
:020000040000fa
:0402f000c802000040
:020000040000fa
:0402f400c80200003c
:020000040000fa
:0402f800c802000038
:020000040000fa
:0402fc00c802000034
:020000040000fa
:04030000c80200002f
:020000040000fa
:04030400c80200002b
:020000040000fa
:04030800c802000027
:020000040000fa
:04030c00c802000023
:020000040000fa
:04031000c80200001f
:020000040000fa
:04031400c80200001b
:020000040000fa
:04031800c802000017
:020000040000fa
:04031c00c802000013
:020000040000fa
:04032000c80200000f
:020000040000fa
:04032400c80200000b
:020000040000fa
:04032800c802000007
:020000040000fa
:04032c00c802000003
:020000040000fa
:04033000c8020000ff
:020000040000fa
:04033400c8020000fb
:020000040000fa
:100400004f8020000e7f22000e01880000000000b7
:10041000000020000000e000020032000001200087
:1004200020028800140007005b0007000000e000c5
:1004300003003a00207e2000010020000200370067
:100440000000200001002000810f70000100320038
:1004500014000700000020000000e000020032004d
:100460000000020000000000ba07020000000000c7
:100470000040da000000fe004440a900600b2000ac
:100480000000e0000300320000002000a00188000e
:100490004440a800000006008a1f78008b1f7800e7
:1004a0000000060091018800800478000000eb0045
:1004b0001a003700e284440032a0b4009905ba0063
:1004c000e284440032a0b4009906ba00e2844400f9
:1004d00032a0b4000006eb00476fde00fd07b2005b
:1004e000636ce10003003a00ebff07000000eb0043
:1004f0000a003700606ce10004003a00005deb0088
:100500008b05e900fdff3e00040037006168e10053
:10051000010032000086eb000b00070019c7ba008b
:100520001905ba000e04e00003003a000a00e000da
:10053000e0ff3a0000000600fe07b2009e018800be
:100540008a047800f5ff3700395dba008b05e900b1
:100550000c003200295dba008b05e900080032006a
:100560000c00e00003003a00e284440032a0b40032
:10057000f5ff370019ddba008b05e900faff3a00f4
:100580008904e800e184440032a0b40000000600c1
:100590000040da000000fe00000005008001780045
:1005a00002003700b15978000201e9000200e000c2
:1005b000fcff3a0000000600889fbe000004be0059
:1005c000080078000d000700000044008900780052
:1005d00003000700080078004f04be00000006007a
:1005e000881f780000047800080078001b000700ce
:1005f000080078004f0478000000060080007800b2
:10060000040037003104e00002003a00000051000d
:1006100000000600010178000108a300f9ff3a007c
:100620008101780031017800f4ef2f0002024200ce
:100630000281ea000201620004082800040161004e
:10064000f7ff320083007800010178003104e000f8
:10065000fdff3a0000005100000006000101780093
:1006600080017800008268000408a30005003200c1
:100670001300370032407800805978000004e00011
:1006800014003200030278000208a300f9ff3a00c8
:10069000030078000100370003187800820078001a
:1006a000b2017800f5ef2f00838242000382ea0056
:1006b000048262000508280005026200f6ff32008d
:1006c0000002780031417800025878000204e0000e
:0c06d000fbff3a00040078000000060068
:020000040000fa
:1006dc00202000002020000020200000202000000e
:1006ec0020200000202000002020000020200000fe
:1006fc00004b000045420000414200002054000025
:10070c00594c00004b4f00002031000035200000f8
:10071c005a4c00004f54000059430000482100007f
:10072c002053000057490000455a000045200000a6
:10073c004d490000455300004f21000000520000bd
:10074c004153000048450000442000004b45000088
:10075c004241000042210000004b000045420000d5
:10076c00414200002b4300004f4c00004120000090
:10077c00323000005a4c0000202d00002075000083
:10078c006c2e0000204b00006f770000616c0000a5
:10079c00736b000069650000676f0000206f00003c
:1007ac00626f00006b20000042690000656400006d
:1007bc00726f00006e6b0000690000003e3e00008e
:1007cc0020500000524f00004d4f0000434a0000e3
:1007dc00412000003c3c0000005a0000414d00004c
:1007ec004f5700003a20000031320000332d00003a
:1007fc0034350000362d0000373800003920000059
:10080c002d200000444f00005354000041570000bd
:10081c0041200000475200004154000049530000a1
:10082c0021000000435a0000594e00004e450000c4
:0c083c0020310000302d000033000000cf
:020000040000fa
:100848000000fa00f03f20001030880030382800ff
:1008580000308800100020006030880000882300e5
:100868001100200018010700008823001100200053
:10087800150107000426ef003003200040308800ef
:1008880050032000010020000f0107000426ef009c
:100898002003200040308800500320000100200081
:1008a800090107000426ef0080032000403088007b
:1008b8005003200001002000030107000426ef0078
:1008c800c0002000403088005003200001002000b4
:1008d800fd0007000426ef0060002000403088007b
:1008e8005003200001002000f70007006d000700fa
:1008f80010c0b3000080fa00000006000400fa00ef
:10090800000f7800110798000a0037001e007800d1
:10091800104078000000fb000000e00011003200e9
:100928001e007800104078001e0fe8001000070035
:10093800000000001e00900000f0a7000000ea0080
:100948000000ea004f00de00004078009e009000a2
:100958008100e900110798000004e000ebff3a006d
:1009680001003700000000000080fa0000000600c7
:100978000200fa00004f78001e00fb00ea0f50004a
:100988000e003200ea0f500003003c00e80f500050
:10099800150032001b003700ec0f50001700320022
:1009a800ed0f500017003a0002c8bf00ea4f500090
:1009b800360032004c0007003500370002c8bf007f
:1009c800ed4f5000010032004700070000c8bf008b
:1009d8000004e00002003a00b00007002c003700d5
:1009e800a30007002a0037005300070000c2b30025
:1009f800dfff070050000700250037002900070027
:100a08002300370001c8bf00f04f500014003a001f
:100a18000168ef0000c8bf000004e00009003a00c8
:100a28000426ef00000c200040308800500320000e
:100a380001002000a400070010c0b30000e8b700c0
:100a4800070037000426ef00000820004030880027
:100a580050032000010020009b0007000068ef0001
:100a680010002000203088001e00fb004030880065
:100a780050032000010020009300070001c8bf00b8
:100a88000040e80001e8b70001003700000000005e
:100a98001e41780021802000824878000080fa00fa
:100aa800000006000000fa000426ef0010002000f5
:100ab80040308800a0882000010020008200070044
:100ac8000426ef002000200040308800a088200085
:100ad800010020007c0007000068ef000168ef00bb
:100ae8000080fa00000006000000fa0000c8bf00fd
:100af8000004e00007003a000426ef000008200088
:100b08004030880050032000010020006e000700dc
:100b1800060037000426ef00000c20004030880053
:100b28005003200001002000670007000168ef0063
:100b38000080fa00000006000200fa0001c8bf00a9
:100b48000004e0001c003a0000c8bf000004e000f8
:100b580009003a000426ef00000c2000403088000d
:100b680050032000010020005700070010c0b30008
:100b780000e8b700070037000426ef00000820004f
:100b88004030880050032000010020004e0007007c
:100b98000068ef000040eb00004f780002003700cb
:100ba800100007001e4fe8001e407800ee4f50006e
:100bb800fbff36000900370001c8bf000040e9000c
:100bc80001e8b7000426ef0000012000403088004b
:100bd80050032000010020003b0007000080fa00bd
:100be800000006000000fa000426ef004001200083
:100bf8004030880050032000010020003200070028
:100c080001c8bf000040e80001e8b70001c8bf0004
:100c1800f04f500014003a000168ef0000c8bf0010
:100c28000004e00009003a000426ef00000c200050
:100c380040308800500320000100200022000700f7
:100c480010c0b30000e8b700070037000426ef0023
:100c580000082000403088005003200001002000d8
:100c6800190007000068ef000080fa000000060085
:100c78000200fa000040eb00004f78000200370045
:100c8800adff07001e4fe8001e407800ef4f5000f0
:100c9800fbff36000080fa00000006000200fa00a0
:100ca8000040eb00004f780002003700cdff07003e
:100cb8001e4fe8001e407800ef4f5000fbff360043
:100cc8000080fa00000006000400fa00008fbe0051
:100cd80005003700000000000081eb008081eb0078
:100ce8001e0f41005e9749001e00be00e00f500035
:100cf800e08f5800f7ff3a000080fa000000060075
:100d08000200fa00004f78001e4078000004e0005e
:100d1800070032000426ef00f00020004030880071
:100d28005003200001002000e7ff070006003700fd
:100d38000426ef00c0002000403088005003200047
:100d480001002000e0ff07000080fa000000060014
:100d58000600fa00200798000000eb00000f78005a
:100d68000c0037000000eb00100798000400370063
:100d7800000000001e0090000000e8001007980026
:100d88009e009000703e2000808f5000f8ff3600d3
:100d98001e0fe8002e0090009e007800808f500003
:100da800f0ff39000080fa0000000600ec00fa00ad
:100db80020b7980031b7980042b7980053b7980009
:100dc8003eb090000bfe0700300798007b004700fc
:100dd80012012000e1362800eefd07007b004700e5
:100de800beb09000f2fd07007b00470001fe07003f
:100df800fb0047000080400012012000e136280077
:100e0800e4fd07007b004700fafd07004007980053
:100e18000000eb0010079800360037000000eb00d8
:100e2800000f78002c0037001eff07002eb090003e
:100e3800f0fd0700800078002eb09000affe07009c
:100e4800a0c0b300cafe07000000eb00200798000e
:100e5800160037002e0090009e0040004e009000c3
:100e6800808f500009003d002e0090001e004000b9
:100e780000004700b05890006a0147002e0090001b
:100e8800000041000148780005003700ea004700eb
:100e98002e0090000080400001c2b3000148780095
:100ea8002e0090000000e800200798002e00900017
:100eb800ef0f5000e7ff34000040eb00205f980080
:100ec8006a004700010120008cfe07004eb0900028
:100ed8009fff07001e0fe8004e00900070005000b2
:100ee8009e0f5000d0ff3d001e0090000000e8005b
:100ef800100798009e0090005eb09000808f500010
:100f0800c6ff39000080fa00000006000000fa0061
:100f180023002000820c2000f1372800503a2800d6
:100f2800a2ff07000080fa00000006000000fa0097
:100f380023002000420b2000313b2800403e2800bf
:100f48009aff07000080fa00000006000000fa007f
:100f580023002000c20d2000313f280080412800d6
:100f680092ff07000080fa00000006000200fa0065
:100f78000000eb00000f78000200370000000000be
:100f88001e0fe800f07022009e007800808f50004d
:100f9800faff36002afe07000040eb0058ff070062
:100fa800daff0700e1ff0700e8ff0700bdfe0700c2
:0c0fb800803e200066ff0700f9ff3700b4
:020000040000fa
:100fc4000008000004000000000000000000000011
:020000040000fa
:020000040002f8
:04aff8009dfa0000be
:020000040000fa
:020000040002f8
:04affc007f3f000093
:00000001FF
