:020000040000fa
:080000000002040000000000f2
:020000040000fa
:04000800c80200002a
:020000040000fa
:04000c00c802000026
:020000040000fa
:04001000c802000022
:020000040000fa
:04001400c80200001e
:020000040000fa
:04001800c80200001a
:020000040000fa
:04001c00c802000016
:020000040000fa
:04002000c802000012
:020000040000fa
:04002400c80200000e
:020000040000fa
:04002800c80200000a
:020000040000fa
:04002c00c802000006
:020000040000fa
:04003000c802000002
:020000040000fa
:04003400c8020000fe
:020000040000fa
:04003800c8020000fa
:020000040000fa
:04003c00c8020000f6
:020000040000fa
:04004000c8020000f2
:020000040000fa
:04004400c8020000ee
:020000040000fa
:04004800c8020000ea
:020000040000fa
:04004c00c8020000e6
:020000040000fa
:04005000c8020000e2
:020000040000fa
:04005400c8020000de
:020000040000fa
:04005800c8020000da
:020000040000fa
:04005c00c8020000d6
:020000040000fa
:04006000c8020000d2
:020000040000fa
:04006400c8020000ce
:020000040000fa
:04006800c8020000ca
:020000040000fa
:04006c00c8020000c6
:020000040000fa
:04007000c8020000c2
:020000040000fa
:04007400c8020000be
:020000040000fa
:04007800c8020000ba
:020000040000fa
:04007c00c8020000b6
:020000040000fa
:04008000c8020000b2
:020000040000fa
:04008400c8020000ae
:020000040000fa
:04008800c8020000aa
:020000040000fa
:04008c00c8020000a6
:020000040000fa
:04009000c8020000a2
:020000040000fa
:04009400c80200009e
:020000040000fa
:04009800c80200009a
:020000040000fa
:04009c00c802000096
:020000040000fa
:0400a000c802000092
:020000040000fa
:0400a400c80200008e
:020000040000fa
:0400a800c80200008a
:020000040000fa
:0400ac00c802000086
:020000040000fa
:0400b000c802000082
:020000040000fa
:0400b400c80200007e
:020000040000fa
:0400b800c80200007a
:020000040000fa
:0400bc00c802000076
:020000040000fa
:0400c000c802000072
:020000040000fa
:0400c400c80200006e
:020000040000fa
:0400c800c80200006a
:020000040000fa
:0400cc00c802000066
:020000040000fa
:0400d000c802000062
:020000040000fa
:0400d400c80200005e
:020000040000fa
:0400d800c80200005a
:020000040000fa
:0400dc00c802000056
:020000040000fa
:0400e000c802000052
:020000040000fa
:0400e400c80200004e
:020000040000fa
:0400e800c80200004a
:020000040000fa
:0400ec00c802000046
:020000040000fa
:0400f000c802000042
:020000040000fa
:0400f400c80200003e
:020000040000fa
:0400f800c80200003a
:020000040000fa
:0400fc00c802000036
:020000040000fa
:04010000c802000031
:020000040000fa
:04010400c80200002d
:020000040000fa
:04010800c802000029
:020000040000fa
:04010c00c802000025
:020000040000fa
:04011000c802000021
:020000040000fa
:04011400c80200001d
:020000040000fa
:04011800c802000019
:020000040000fa
:04011c00c802000015
:020000040000fa
:04012000c802000011
:020000040000fa
:04012400c80200000d
:020000040000fa
:04012800c802000009
:020000040000fa
:04012c00c802000005
:020000040000fa
:04013000c802000001
:020000040000fa
:04013400c8020000fd
:020000040000fa
:04020800c802000028
:020000040000fa
:04020c00c802000024
:020000040000fa
:04021000c802000020
:020000040000fa
:04021400c80200001c
:020000040000fa
:04021800c802000018
:020000040000fa
:04021c00c802000014
:020000040000fa
:04022000c802000010
:020000040000fa
:04022400c80200000c
:020000040000fa
:04022800c802000008
:020000040000fa
:04022c00c802000004
:020000040000fa
:04023000c802000000
:020000040000fa
:04023400c8020000fc
:020000040000fa
:04023800c8020000f8
:020000040000fa
:04023c00c8020000f4
:020000040000fa
:04024000c8020000f0
:020000040000fa
:04024400c8020000ec
:020000040000fa
:04024800c8020000e8
:020000040000fa
:04024c00c8020000e4
:020000040000fa
:04025000c8020000e0
:020000040000fa
:04025400c8020000dc
:020000040000fa
:04025800c8020000d8
:020000040000fa
:04025c00c8020000d4
:020000040000fa
:04026000c8020000d0
:020000040000fa
:04026400c8020000cc
:020000040000fa
:04026800c8020000c8
:020000040000fa
:04026c00c8020000c4
:020000040000fa
:04027000c8020000c0
:020000040000fa
:04027400c8020000bc
:020000040000fa
:04027800c8020000b8
:020000040000fa
:04027c00c8020000b4
:020000040000fa
:04028000c8020000b0
:020000040000fa
:04028400c8020000ac
:020000040000fa
:04028800c8020000a8
:020000040000fa
:04028c00c8020000a4
:020000040000fa
:04029000c8020000a0
:020000040000fa
:04029400c80200009c
:020000040000fa
:04029800c802000098
:020000040000fa
:04029c00c802000094
:020000040000fa
:0402a000c802000090
:020000040000fa
:0402a400c80200008c
:020000040000fa
:0402a800c802000088
:020000040000fa
:0402ac00c802000084
:020000040000fa
:0402b000c802000080
:020000040000fa
:0402b400c80200007c
:020000040000fa
:0402b800c802000078
:020000040000fa
:0402bc00c802000074
:020000040000fa
:0402c000c802000070
:020000040000fa
:0402c400c80200006c
:020000040000fa
:0402c800c802000068
:020000040000fa
:0402cc00c802000064
:020000040000fa
:0402d000c802000060
:020000040000fa
:0402d400c80200005c
:020000040000fa
:0402d800c802000058
:020000040000fa
:0402dc00c802000054
:020000040000fa
:0402e000c802000050
:020000040000fa
:0402e400c80200004c
:020000040000fa
:0402e800c802000048
:020000040000fa
:0402ec00c802000044
:020000040000fa
:0402f000c802000040
:020000040000fa
:0402f400c80200003c
:020000040000fa
:0402f800c802000038
:020000040000fa
:0402fc00c802000034
:020000040000fa
:04030000c80200002f
:020000040000fa
:04030400c80200002b
:020000040000fa
:04030800c802000027
:020000040000fa
:04030c00c802000023
:020000040000fa
:04031000c80200001f
:020000040000fa
:04031400c80200001b
:020000040000fa
:04031800c802000017
:020000040000fa
:04031c00c802000013
:020000040000fa
:04032000c80200000f
:020000040000fa
:04032400c80200000b
:020000040000fa
:04032800c802000007
:020000040000fa
:04032c00c802000003
:020000040000fa
:04033000c8020000ff
:020000040000fa
:04033400c8020000fb
:020000040000fa
:100400000f8020000e7f22000e01880000000000f7
:10041000000020000000e000020032000001200087
:1004200020028800140007005b0007000000e000c5
:1004300003003a0000002000010020000200370005
:100440000000200001002000810f70000100320038
:1004500014000700000020000000e000020032004d
:100460000000020000000000020302000000000083
:100470000040da000000fe004440a9000000200017
:100480000000e0000300320000002000a00188000e
:100490004440a800000006008a1f78008b1f7800e7
:1004a0000000060091018800800478000000eb0045
:1004b0001a003700e284440032a0b4009905ba0063
:1004c000e284440032a0b4009906ba00e2844400f9
:1004d00032a0b4000006eb00476fde00fd07b2005b
:1004e000636ce10003003a00ebff07000000eb0043
:1004f0000a003700606ce10004003a00005deb0088
:100500008b05e900fdff3e00040037006168e10053
:10051000010032000086eb000b00070019c7ba008b
:100520001905ba000e04e00003003a000a00e000da
:10053000e0ff3a0000000600fe07b2009e018800be
:100540008a047800f5ff3700395dba008b05e900b1
:100550000c003200295dba008b05e900080032006a
:100560000c00e00003003a00e284440032a0b40032
:10057000f5ff370019ddba008b05e900faff3a00f4
:100580008904e800e184440032a0b40000000600c1
:0c0590000040da000000fe000000050042
:020000040000fa
:10059c000200fa00000f78001e007800eb01070043
:1005ac000004e00011003200003e29004100200050
:1005bc00350207001e007800e40107000004e0008b
:1005cc000a003200000000001e007800df01070066
:1005dc000004e000fcff3a00003e2900410020002e
:1005ec002902070010c0b300010037000040eb00e7
:1005fc000080fa00000006000200fa000080eb0008
:10060c0060198800c022ef0010c0b300004f7800c2
:10061c0010002000deff07000004e000070032009d
:10062c001e4fe9001e4078000004e0000d003a0067
:10063c0090c0b300004f78000a0037004000200043
:10064c00d3ff07000004e000060032001e4fe80054
:10065c001e407800ea4f500002003a0010c0b30070
:10066c00004f78001e00fb00e50f50001f00320009
:10067c00e50f50000c003c00e20f5000150032005a
:10068c00e20f500003003c00e10f50000f0032005d
:10069c00dfff3700e30f500010003200e40f500072
:1006ac0010003200daff3700e70f50001300320061
:1006bc00e70f50000f003500e80f5000110032001a
:1006cc00e90f500011003200d1ff37001200070073
:1006dc0010003700280007000e0037003e0007000e
:1006ec000c0037005d0007000a0037007c00070093
:1006fc0008003700a900070006003700d8000700e3
:10070c00040037000e0107000200370050010700fb
:10071c0000000000beff37000200fa000040eb00b2
:10072c00004f78001e80fb00201688000100370067
:10073c000000000000242400f1002000d20107007a
:10074c001e4fe8001e80fb002016880010002000c1
:10075c007e0107000004e00004003a004000200085
:10076c007a0107000004e000f1ff32000000eb000a
:10077c000080fa00000006000200fa0000c0eb0046
:10078c00004f78001e80fb00201688000100370007
:10079c000000000000242400f1002000ba01070032
:1007ac001e4fe9001e80fb00201688001000200060
:1007bc00660107000004e00004003a00400020003d
:1007cc00620107000004e000f1ff32000000eb00c2
:1007dc000080fa00000006000200fa000040eb0066
:1007ec00004f78000040eb00104798001e4090002e
:1007fc000080fb002016880001003700000000007c
:10080c0000242400f10020009f0107001e4fe80087
:10081c001e80fb000000d100004078001e406800e4
:10082c00104798001e4090000080fb0020168800a6
:10083c0010002000450107000004e00004003a000d
:10084c0040002000410107000004e000ebff3200f3
:10085c000000eb000080fa00000006000200fa0025
:10086c0000c0eb00004f780000c8b30010479800a0
:10087c001e4090000080fb0020168800010037000d
:10088c000000000000242400f10020007e0107007d
:10089c001e4fe9001e80fb000000d10000407800d4
:1008ac001e406800104798001e4090000080fb001e
:1008bc002016880010002000240107000004e0002e
:1008cc0004003a0040002000200107000004e00072
:1008dc00ebff32000000eb000080fa000000060085
:1008ec000200fa000040eb00004f780001003700d6
:1008fc000000000000242400f10020006201070029
:10090c001e4fe80030c6b3009e40780080cf5000e8
:10091c00020036000040eb00004f78009e80fb0088
:10092c00d0cc2c000008b8004308de000040780052
:10093c000080fb004400dd00804178001e81fb003c
:10094c00d0cc2c000010b8004308de006a00b900bf
:10095c0000007800000051000040780000c07100d9
:10096c00104798001e4090000080fb002016880065
:10097c0010002000f50007000004e00004003a001d
:10098c0040002000f10007000004e000d8ff320016
:10099c000000eb000080fa00000006000200fa00e4
:1009ac0030c6b300004f780090c9b30010479800d0
:1009bc00010037000000000000242400f10020009a
:1009cc00310107001e4078000004e00003003a00eb
:1009dc0030c6b300004f7800010037001e4fe9000d
:1009ec009e80fb00d0cc2c000008b8004308de0031
:1009fc00004078000080fb004400dd00804178005e
:100a0c001e81fb00d0cc2c000010b8004308de0087
:100a1c006a00b90000007800000051000040780026
:100a2c0000c07100104798001e4090000080fb0031
:100a3c002016880010002000c40007000004e0000d
:100a4c0004003a0040002000c00007000004e00051
:100a5c00d8ff32000000eb000080fa000000060016
:100a6c000200fa0070c0b300004f7800120037008b
:100a7c001e80fb00201688001e40780000404000bd
:100a8c00004f780000242400f1002000fe00070035
:100a9c0010002000ad0007000004e00004003a0044
:100aac0040002000a90007000004e0000200320012
:100abc000000eb002000370000ceb3009e40780011
:100acc0080cf5000eaff3a001e80fb002016880001
:100adc0000242400f1002000eb0007001200370076
:100aec001e80fb000000d100004f78001e80fb0030
:100afc002016880000242400f1002000e2000700ea
:100b0c0010002000910007000004e00004003a00ef
:100b1c00400020008d0007000004e00002003200bd
:100b2c000000eb00040037001e407800e74f500037
:100b3c00ebff3a00caff07000080fa000000060035
:100b4c000800fa000040eb00004f78000000eb00ba
:100b5c00100798003800370010c0b30040479800c9
:100b6c001e0090000000e8003007980018003700c5
:100b7c009e80fb004e4090000080fb0000804000f7
:100b8c00201688004e4090000040400040479800de
:100b9c0000242400f1002000bb00070010002000fe
:100bac006a0007000004e00004003a004000200046
:100bbc00660007000004e000020032000000eb00b9
:100bcc00210037003e0090000000e800300798003c
:100bdc003e009000e70f5000e5ff34009e80fb00c4
:100bec004e4090000080fb000080400020168800e2
:100bfc004e4090001e4f400000242400f1002000c5
:100c0c00a100070010002000500007000004e000c5
:100c1c0004003a00400020004c0007000004e000f3
:100c2c00020032000000eb00070037001e009000ad
:100c3c000000e800100798001e009000e70f50001d
:100c4c00c5ff3400bfff37000080fa00000006002b
:100c5c000200fa0040c6b300004f780001003700d4
:100c6c00000000001e40780011000700004f7800c3
:100c7c001e80fb002016880000242400f1002000b8
:100c8c008100070010002000300007000004e00085
:100c9c0004003a00400020002c0007000004e00093
:100cac00efff32000000eb000080fa0000000600ad
:100cbc000400fa00204798002e4090000080fb00b2
:100ccc004600de0000407800e14060002e409000bd
:100cdc000080fb004500de000040780061406000b1
:100cec0080c068002e4090000080fb004400de00b5
:100cfc00004078006140600080c068002e40900089
:100d0c000080fb000000d1000040780061406000d2
:100d1c0080c068002e4090006140600000c06800f8
:100d2c00004f78001e80fb004700dd0080407800fb
:100d3c002e4090000080fb000000d10000407800a5
:100d4c0000c070000080fa00000006000200fa00eb
:100d5c00000f78001e007800e20f500013003200e4
:100d6c00e20f500003003e00e10f5000060032007d
:100d7c0029003700e30f500015003200e40f50003b
:100d8c001c00320024003700a11680000004200053
:100d9c000080600000f0a7000000ea000000e900fd
:100dac004f00de00004078001c003700a1168000c8
:100dbc00000820000080600000f0a7000000ea009e
:100dcc000000e9004f00de000040780013003700ff
:100ddc0011168000000820000080600000f0a700c1
:100dec000000ea000000e9004f00de00004078003f
:100dfc000a003700a116800000002200008060006d
:100e0c0000f0a7000000ea000000e9004f00de003f
:100e1c0000407800010037000040eb000080fa0031
:100e2c00000006000200fa00000f78001e00780097
:100e3c00e20f50000c003200e20f500003003e00a5
:100e4c00e10f5000060032000d003700e30f500098
:100e5c0007003200e40f5000070032000800370092
:100e6c00d2c2a80006003700d2e2a8000400370066
:100e7c00c0e2a80002003700d3a2a80000000000c6
:080e8c000080fa0000000600de
:020000040000fa
:100e9400f03fb1000180b10006003500ee03090007
:100ea40000000000403fb1000180b100fbff3d00a5
:100eb4001000b000203fb00002003500008009009f
:080ec400000000000000060020
:020000040000fa
:020000040002f8
:04aff8009dfa0000be
:020000040000fa
:020000040002f8
:04affc007f3f000093
:00000001FF
