:020000040000fa
:080000000002040000000000f2
:020000040000fa
:04000800c80200002a
:020000040000fa
:04000c00c802000026
:020000040000fa
:04001000c802000022
:020000040000fa
:04001400c80200001e
:020000040000fa
:04001800c80200001a
:020000040000fa
:04001c00c802000016
:020000040000fa
:04002000c802000012
:020000040000fa
:04002400c80200000e
:020000040000fa
:04002800c80200000a
:020000040000fa
:04002c00c802000006
:020000040000fa
:04003000c802000002
:020000040000fa
:04003400c8020000fe
:020000040000fa
:04003800c8020000fa
:020000040000fa
:04003c00c8020000f6
:020000040000fa
:04004000c8020000f2
:020000040000fa
:04004400c8020000ee
:020000040000fa
:04004800c8020000ea
:020000040000fa
:04004c00c8020000e6
:020000040000fa
:04005000c8020000e2
:020000040000fa
:04005400c8020000de
:020000040000fa
:04005800c8020000da
:020000040000fa
:04005c00c8020000d6
:020000040000fa
:04006000c8020000d2
:020000040000fa
:04006400c8020000ce
:020000040000fa
:04006800c8020000ca
:020000040000fa
:04006c00c8020000c6
:020000040000fa
:04007000c8020000c2
:020000040000fa
:04007400c8020000be
:020000040000fa
:04007800c8020000ba
:020000040000fa
:04007c00c8020000b6
:020000040000fa
:04008000c8020000b2
:020000040000fa
:04008400c8020000ae
:020000040000fa
:04008800c8020000aa
:020000040000fa
:04008c00c8020000a6
:020000040000fa
:04009000c8020000a2
:020000040000fa
:04009400c80200009e
:020000040000fa
:04009800c80200009a
:020000040000fa
:04009c00c802000096
:020000040000fa
:0400a000c802000092
:020000040000fa
:0400a400c80200008e
:020000040000fa
:0400a800c80200008a
:020000040000fa
:0400ac00c802000086
:020000040000fa
:0400b000c802000082
:020000040000fa
:0400b400c80200007e
:020000040000fa
:0400b800c80200007a
:020000040000fa
:0400bc00c802000076
:020000040000fa
:0400c000c802000072
:020000040000fa
:0400c400c80200006e
:020000040000fa
:0400c800c80200006a
:020000040000fa
:0400cc00c802000066
:020000040000fa
:0400d000c802000062
:020000040000fa
:0400d400c80200005e
:020000040000fa
:0400d800c80200005a
:020000040000fa
:0400dc00c802000056
:020000040000fa
:0400e000c802000052
:020000040000fa
:0400e400c80200004e
:020000040000fa
:0400e800c80200004a
:020000040000fa
:0400ec00c802000046
:020000040000fa
:0400f000c802000042
:020000040000fa
:0400f400c80200003e
:020000040000fa
:0400f800c80200003a
:020000040000fa
:0400fc00c802000036
:020000040000fa
:04010000c802000031
:020000040000fa
:04010400c80200002d
:020000040000fa
:04010800c802000029
:020000040000fa
:04010c00c802000025
:020000040000fa
:04011000c802000021
:020000040000fa
:04011400c80200001d
:020000040000fa
:04011800c802000019
:020000040000fa
:04011c00c802000015
:020000040000fa
:04012000c802000011
:020000040000fa
:04012400c80200000d
:020000040000fa
:04012800c802000009
:020000040000fa
:04012c00c802000005
:020000040000fa
:04013000c802000001
:020000040000fa
:04013400c8020000fd
:020000040000fa
:04020800c802000028
:020000040000fa
:04020c00c802000024
:020000040000fa
:04021000c802000020
:020000040000fa
:04021400c80200001c
:020000040000fa
:04021800c802000018
:020000040000fa
:04021c00c802000014
:020000040000fa
:04022000c802000010
:020000040000fa
:04022400c80200000c
:020000040000fa
:04022800c802000008
:020000040000fa
:04022c00c802000004
:020000040000fa
:04023000c802000000
:020000040000fa
:04023400c8020000fc
:020000040000fa
:04023800c8020000f8
:020000040000fa
:04023c00c8020000f4
:020000040000fa
:04024000c8020000f0
:020000040000fa
:04024400c8020000ec
:020000040000fa
:04024800c8020000e8
:020000040000fa
:04024c00c8020000e4
:020000040000fa
:04025000c8020000e0
:020000040000fa
:04025400c8020000dc
:020000040000fa
:04025800c8020000d8
:020000040000fa
:04025c00c8020000d4
:020000040000fa
:04026000c8020000d0
:020000040000fa
:04026400c8020000cc
:020000040000fa
:04026800c8020000c8
:020000040000fa
:04026c00c8020000c4
:020000040000fa
:04027000c8020000c0
:020000040000fa
:04027400c8020000bc
:020000040000fa
:04027800c8020000b8
:020000040000fa
:04027c00c8020000b4
:020000040000fa
:04028000c8020000b0
:020000040000fa
:04028400c8020000ac
:020000040000fa
:04028800c8020000a8
:020000040000fa
:04028c00c8020000a4
:020000040000fa
:04029000c8020000a0
:020000040000fa
:04029400c80200009c
:020000040000fa
:04029800c802000098
:020000040000fa
:04029c00c802000094
:020000040000fa
:0402a000c802000090
:020000040000fa
:0402a400c80200008c
:020000040000fa
:0402a800c802000088
:020000040000fa
:0402ac00c802000084
:020000040000fa
:0402b000c802000080
:020000040000fa
:0402b400c80200007c
:020000040000fa
:0402b800c802000078
:020000040000fa
:0402bc00c802000074
:020000040000fa
:0402c000c802000070
:020000040000fa
:0402c400c80200006c
:020000040000fa
:0402c800c802000068
:020000040000fa
:0402cc00c802000064
:020000040000fa
:0402d000c802000060
:020000040000fa
:0402d400c80200005c
:020000040000fa
:0402d800c802000058
:020000040000fa
:0402dc00c802000054
:020000040000fa
:0402e000c802000050
:020000040000fa
:0402e400c80200004c
:020000040000fa
:0402e800c802000048
:020000040000fa
:0402ec00c802000044
:020000040000fa
:0402f000c802000040
:020000040000fa
:0402f400c80200003c
:020000040000fa
:0402f800c802000038
:020000040000fa
:0402fc00c802000034
:020000040000fa
:04030000c80200002f
:020000040000fa
:04030400c80200002b
:020000040000fa
:04030800c802000027
:020000040000fa
:04030c00c802000023
:020000040000fa
:04031000c80200001f
:020000040000fa
:04031400c80200001b
:020000040000fa
:04031800c802000017
:020000040000fa
:04031c00c802000013
:020000040000fa
:04032000c80200000f
:020000040000fa
:04032400c80200000b
:020000040000fa
:04032800c802000007
:020000040000fa
:04032c00c802000003
:020000040000fa
:04033000c8020000ff
:020000040000fa
:04033400c8020000fb
:020000040000fa
:100400000f8020000e7f22000e01880000000000f7
:10041000000020000000e000020032000001200087
:1004200020028800140007005b0007000000e000c5
:1004300003003a0000002000010020000200370005
:100440000000200001002000810f70000100320038
:1004500014000700000020000000e000020032004d
:100460000000020000000000ce02020000000000b8
:100470000040da000000fe004440a9000000200017
:100480000000e0000300320000002000a00188000e
:100490004440a800000006008a1f78008b1f7800e7
:1004a0000000060091018800800478000000eb0045
:1004b0001a003700e284440032a0b4009905ba0063
:1004c000e284440032a0b4009906ba00e2844400f9
:1004d00032a0b4000006eb00476fde00fd07b2005b
:1004e000636ce10003003a00ebff07000000eb0043
:1004f0000a003700606ce10004003a00005deb0088
:100500008b05e900fdff3e00040037006168e10053
:10051000010032000086eb000b00070019c7ba008b
:100520001905ba000e04e00003003a000a00e000da
:10053000e0ff3a0000000600fe07b2009e018800be
:100540008a047800f5ff3700395dba008b05e900b1
:100550000c003200295dba008b05e900080032006a
:100560000c00e00003003a00e284440032a0b40032
:10057000f5ff370019ddba008b05e900faff3a00f4
:100580008904e800e184440032a0b40000000600c1
:0c0590000040da000000fe000000050042
:020000040000fa
:10059c000200fa000080eb0060198800c022ef0016
:1005ac0010c0b300004f780010002000b00107000d
:1005bc000004e0000a0032001e4fe9001e407800e3
:1005cc000004e00002003a0090c0b300004f780035
:1005dc0000242400f1002000f40107000d00370076
:1005ec0040002000a20107000004e00009003200d6
:1005fc001e4fe8001e407800ea4f500002003a00ff
:10060c0010c0b300004f780000242400f10020003b
:10061c00e60107001e00fb00e50f50001f00320032
:10062c00e50f50000c003c00e20f500015003200aa
:10063c00e20f500003003c00e10f50000f003200ad
:10064c00d9ff3700e30f500010003200e40f5000c8
:10065c0010003200d4ff3700e70f500013003200b7
:10066c00e70f50000f003500e80f5000110032006a
:10067c00e90f500011003200cbff370012000700c9
:10068c0010003700280007000e0037003e0007005e
:10069c000c0037005d0007000a0037007c000700e3
:1006ac0008003700a800070006003700d400070038
:1006bc00040037000501070002003700470107005e
:1006cc0000000000b8ff37000200fa000040eb0009
:1006dc00004f78001e80fb002016880001003700b8
:1006ec000000000000242400f1002000af010700ee
:1006fc001e4fe8001e80fb00201688001000200012
:10070c005b0107000004e00004003a0040002000f8
:10071c00570107000004e000f1ff32000000eb007d
:10072c000080fa00000006000200fa0000c0eb0096
:10073c00004f78001e80fb00201688000100370057
:10074c000000000000242400f100200097010700a5
:10075c001e4fe9001e80fb002016880010002000b0
:10076c00430107000004e00004003a0040002000b0
:10077c003f0107000004e000f1ff32000000eb0035
:10078c000080fa00000006000200fa000040eb00b6
:10079c00004f78000040eb00104798001e4090007e
:1007ac000080fb00201688000100370000000000cc
:1007bc0000242400f10020007c0107001e4fe800fb
:1007cc001e80fb000000d100004078001e40680035
:1007dc00104798001e4090000080fb0020168800f7
:1007ec0010002000220107000004e00004003a0081
:1007fc00400020001e0107000004e000ebff320067
:10080c000000eb000080fa00000006000200fa0075
:10081c0000c0eb00004f780000c8b30010479800f0
:10082c001e4090000080fb0020168800010037005d
:10083c000000000000242400f10020005b010700f0
:10084c001e4fe9001e80fb000000d1000040780024
:10085c001e406800104798001e4090000080fb006e
:10086c002016880010002000010107000004e000a1
:10087c0004003a0040002000fd0007000004e000e6
:10088c00ebff32000000eb000080fa0000000600d5
:10089c000200fa000040eb00004f78000040eb0033
:1008ac00104798001e4090000080fb002016880026
:1008bc00010037000000000000242400f10020009b
:1008cc003a0107001e4fe8009e80fb00d0cc2c00a4
:1008dc000008b8004308de00004078000080fb00f0
:1008ec004400dd00804178001e81fb00d0cc2c0040
:1008fc000010b8004308de006a00b9000000780060
:10090c00000051000040780000c0710010479800b2
:10091c001e4090000080fb00201688001000200074
:10092c00d30007000004e00004003a00400020005f
:10093c00cf0007000004e000deff32000000eb00f7
:10094c000080fa00000006000200fa0030c6b30076
:10095c00004f780090c9b300104798001e409000db
:10096c000080fb002016880001003700000000000a
:10097c0000242400f10020000c0107001e4fe900a8
:10098c009e80fb00d0cc2c000008b8004308de0091
:10099c00004078000080fb004400dd0080417800be
:1009ac001e81fb00d0cc2c000010b8004308de00e8
:1009bc006a00b90000007800000051000040780087
:1009cc0000c07100104798001e4090000080fb0092
:1009dc002016880010002000a50007000004e0008d
:1009ec0004003a0040002000a10007000004e000d1
:1009fc00deff32000000eb000080fa000000060071
:100a0c000200fa0070c0b300004f780012003700eb
:100a1c001e80fb00201688001e407800004040001d
:100a2c00004f780000242400f1002000df000700b4
:100a3c00100020008e0007000004e00004003a00c3
:100a4c00400020008a0007000004e0000200320091
:100a5c000000eb001b00370000ceb3009e40780076
:100a6c0080cf5000eaff3a00120037001e80fb00d6
:100a7c00201688001e80fb000000d100004f78007b
:100a8c0000242400f1002000c80007001000200002
:100a9c00770007000004e00004003a00400020004a
:100aac00730007000004e000020032000000eb00bd
:100abc00040037001e407800e34f5000ebff3a0073
:100acc00000037000080fa00000006000800fa0061
:100adc000040eb00004f78000000eb00100798007e
:100aec003800370010c0b300404798001e0090003b
:100afc000000e80030079800180037009e80fb00cb
:100b0c004e4090000080fb000080400020168800c2
:100b1c004e409000004040004047980000242400c4
:100b2c00f1002000a1000700100020005000070079
:100b3c000004e00004003a00400020004c000700d4
:100b4c000004e000020032000000eb00210037003e
:100b5c003e0090000000e800300798003e00900036
:100b6c00e70f5000e5ff34009e80fb004e409000e4
:100b7c000080fb0000804000201688004e40900052
:100b8c001e4f400000242400f100200087000700c5
:100b9c0010002000360007000004e00004003a00ba
:100bac0040002000320007000004e0000200320088
:100bbc000000eb00070037001e0090000000e8006a
:100bcc00100798001e009000e70f5000c5ff34007e
:100bdc00bfff37000080fa00000006000200fa0098
:100bec0040c6b300004f7800010037000000000041
:100bfc001e40780011000700004f78001e80fb009b
:100c0c002016880000242400f10020006700070053
:100c1c0010002000160007000004e00004003a0059
:100c2c0040002000120007000004e000efff32003b
:100c3c000000eb000080fa00000006000200fa0041
:100c4c00004f78009e80fb00300720000080600081
:100c5c004600dd00804078001e80fb000000d100c3
:100c6c000040780000c070000080fa000000060010
:100c7c000200fa00000f78001e007800e20f50000e
:100c8c0013003200e20f500003003e00e10f500051
:100c9c000600320029003700e30f50001500320027
:100cac00e40f50001c00320024003700a116800015
:100cbc00000420000080600000f0a7000000ea00a3
:100ccc000000e9004f00de00004078001c003700f7
:100cdc00a1168000000820000080600000f0a70032
:100cec000000ea000000e9004f00de000040780040
:100cfc0013003700111680000008200000806000ef
:100d0c0000f0a7000000ea000000e9004f00de0040
:100d1c00004078000a003700a11680000000220075
:100d2c000080600000f0a7000000ea000000e9006d
:100d3c004f00de0000407800010037000040eb005f
:100d4c000080fa00000006000200fa00000f780094
:100d5c001e007800e20f50000c003200e20f500031
:100d6c0003003e00e10f5000060032000d0037007a
:100d7c00e30f500007003200e40f50000700320070
:100d8c0008003700d2c2a80006003700d2e2a80043
:100d9c0004003700c0e2a80002003700d3a2a8006c
:0c0dac00000000000080fa0000000600bb
:020000040000fa
:100db800f03fb1000180b10006003500ee030900e4
:100dc80000000000403fb1000180b100fbff3d0082
:100dd8001000b000203fb00002003500008009007c
:080de8000000000000000600fd
:020000040000fa
:020000040002f8
:04aff8009dfa0000be
:020000040000fa
:020000040002f8
:04affc007f3f000093
:00000001FF
