:020000040000fa
:080000000002040000000000f2
:020000040000fa
:04000800c80200002a
:020000040000fa
:04000c00c802000026
:020000040000fa
:04001000c802000022
:020000040000fa
:04001400c80200001e
:020000040000fa
:04001800c80200001a
:020000040000fa
:04001c00c802000016
:020000040000fa
:04002000c802000012
:020000040000fa
:04002400c80200000e
:020000040000fa
:04002800c80200000a
:020000040000fa
:04002c00c802000006
:020000040000fa
:04003000c802000002
:020000040000fa
:04003400c8020000fe
:020000040000fa
:04003800c8020000fa
:020000040000fa
:04003c00c8020000f6
:020000040000fa
:04004000c8020000f2
:020000040000fa
:04004400c8020000ee
:020000040000fa
:04004800c8020000ea
:020000040000fa
:04004c00c8020000e6
:020000040000fa
:04005000c8020000e2
:020000040000fa
:04005400c8020000de
:020000040000fa
:04005800c8020000da
:020000040000fa
:04005c00c8020000d6
:020000040000fa
:04006000c8020000d2
:020000040000fa
:04006400c8020000ce
:020000040000fa
:04006800c8020000ca
:020000040000fa
:04006c00c8020000c6
:020000040000fa
:04007000c8020000c2
:020000040000fa
:04007400c8020000be
:020000040000fa
:04007800c8020000ba
:020000040000fa
:04007c00c8020000b6
:020000040000fa
:04008000c8020000b2
:020000040000fa
:04008400c8020000ae
:020000040000fa
:04008800c8020000aa
:020000040000fa
:04008c00c8020000a6
:020000040000fa
:04009000c8020000a2
:020000040000fa
:04009400c80200009e
:020000040000fa
:04009800c80200009a
:020000040000fa
:04009c00c802000096
:020000040000fa
:0400a000c802000092
:020000040000fa
:0400a400c80200008e
:020000040000fa
:0400a800c80200008a
:020000040000fa
:0400ac00c802000086
:020000040000fa
:0400b000c802000082
:020000040000fa
:0400b400c80200007e
:020000040000fa
:0400b800c80200007a
:020000040000fa
:0400bc00c802000076
:020000040000fa
:0400c000c802000072
:020000040000fa
:0400c400c80200006e
:020000040000fa
:0400c800c80200006a
:020000040000fa
:0400cc00c802000066
:020000040000fa
:0400d000c802000062
:020000040000fa
:0400d400c80200005e
:020000040000fa
:0400d800c80200005a
:020000040000fa
:0400dc00c802000056
:020000040000fa
:0400e000c802000052
:020000040000fa
:0400e400c80200004e
:020000040000fa
:0400e800c80200004a
:020000040000fa
:0400ec00c802000046
:020000040000fa
:0400f000c802000042
:020000040000fa
:0400f400c80200003e
:020000040000fa
:0400f800c80200003a
:020000040000fa
:0400fc00c802000036
:020000040000fa
:04010000c802000031
:020000040000fa
:04010400c80200002d
:020000040000fa
:04010800c802000029
:020000040000fa
:04010c00c802000025
:020000040000fa
:04011000c802000021
:020000040000fa
:04011400c80200001d
:020000040000fa
:04011800c802000019
:020000040000fa
:04011c00c802000015
:020000040000fa
:04012000c802000011
:020000040000fa
:04012400c80200000d
:020000040000fa
:04012800c802000009
:020000040000fa
:04012c00c802000005
:020000040000fa
:04013000c802000001
:020000040000fa
:04013400c8020000fd
:020000040000fa
:04020800c802000028
:020000040000fa
:04020c00c802000024
:020000040000fa
:04021000c802000020
:020000040000fa
:04021400c80200001c
:020000040000fa
:04021800c802000018
:020000040000fa
:04021c00c802000014
:020000040000fa
:04022000c802000010
:020000040000fa
:04022400c80200000c
:020000040000fa
:04022800c802000008
:020000040000fa
:04022c00c802000004
:020000040000fa
:04023000c802000000
:020000040000fa
:04023400c8020000fc
:020000040000fa
:04023800c8020000f8
:020000040000fa
:04023c00c8020000f4
:020000040000fa
:04024000c8020000f0
:020000040000fa
:04024400c8020000ec
:020000040000fa
:04024800c8020000e8
:020000040000fa
:04024c00c8020000e4
:020000040000fa
:04025000c8020000e0
:020000040000fa
:04025400c8020000dc
:020000040000fa
:04025800c8020000d8
:020000040000fa
:04025c00c8020000d4
:020000040000fa
:04026000c8020000d0
:020000040000fa
:04026400c8020000cc
:020000040000fa
:04026800c8020000c8
:020000040000fa
:04026c00c8020000c4
:020000040000fa
:04027000c8020000c0
:020000040000fa
:04027400c8020000bc
:020000040000fa
:04027800c8020000b8
:020000040000fa
:04027c00c8020000b4
:020000040000fa
:04028000c8020000b0
:020000040000fa
:04028400c8020000ac
:020000040000fa
:04028800c8020000a8
:020000040000fa
:04028c00c8020000a4
:020000040000fa
:04029000c8020000a0
:020000040000fa
:04029400c80200009c
:020000040000fa
:04029800c802000098
:020000040000fa
:04029c00c802000094
:020000040000fa
:0402a000c802000090
:020000040000fa
:0402a400c80200008c
:020000040000fa
:0402a800c802000088
:020000040000fa
:0402ac00c802000084
:020000040000fa
:0402b000c802000080
:020000040000fa
:0402b400c80200007c
:020000040000fa
:0402b800c802000078
:020000040000fa
:0402bc00c802000074
:020000040000fa
:0402c000c802000070
:020000040000fa
:0402c400c80200006c
:020000040000fa
:0402c800c802000068
:020000040000fa
:0402cc00c802000064
:020000040000fa
:0402d000c802000060
:020000040000fa
:0402d400c80200005c
:020000040000fa
:0402d800c802000058
:020000040000fa
:0402dc00c802000054
:020000040000fa
:0402e000c802000050
:020000040000fa
:0402e400c80200004c
:020000040000fa
:0402e800c802000048
:020000040000fa
:0402ec00c802000044
:020000040000fa
:0402f000c802000040
:020000040000fa
:0402f400c80200003c
:020000040000fa
:0402f800c802000038
:020000040000fa
:0402fc00c802000034
:020000040000fa
:04030000c80200002f
:020000040000fa
:04030400c80200002b
:020000040000fa
:04030800c802000027
:020000040000fa
:04030c00c802000023
:020000040000fa
:04031000c80200001f
:020000040000fa
:04031400c80200001b
:020000040000fa
:04031800c802000017
:020000040000fa
:04031c00c802000013
:020000040000fa
:04032000c80200000f
:020000040000fa
:04032400c80200000b
:020000040000fa
:04032800c802000007
:020000040000fa
:04032c00c802000003
:020000040000fa
:04033000c8020000ff
:020000040000fa
:04033400c8020000fb
:020000040000fa
:100400006f8020000e7f22000e0188000000000097
:10041000000020000000e000020032000001200087
:1004200020028800140007005b0007000000e000c5
:1004300003003a0020652000010020000200370080
:100440000000200001002000810f70000100320038
:1004500014000700000020000000e000020032004d
:100460000000020000000000c605020000000000bd
:100470000040da000000fe004440a9000000200017
:100480000000e0000300320000002000a00188000e
:100490004440a800000006008a1f78008b1f7800e7
:1004a0000000060091018800800478000000eb0045
:1004b0001a003700e284440032a0b4009905ba0063
:1004c000e284440032a0b4009906ba00e2844400f9
:1004d00032a0b4000006eb00476fde00fd07b2005b
:1004e000636ce10003003a00ebff07000000eb0043
:1004f0000a003700606ce10004003a00005deb0088
:100500008b05e900fdff3e00040037006168e10053
:10051000010032000086eb000b00070019c7ba008b
:100520001905ba000e04e00003003a000a00e000da
:10053000e0ff3a0000000600fe07b2009e018800be
:100540008a047800f5ff3700395dba008b05e900b1
:100550000c003200295dba008b05e900080032006a
:100560000c00e00003003a00e284440032a0b40032
:10057000f5ff370019ddba008b05e900faff3a00f4
:100580008904e800e184440032a0b40000000600c1
:0c0590000040da000000fe000000050042
:020000040000fa
:10059c000000fa00a116800000042000008060001a
:1005ac000000e0001a003a0001c8bf000004a200dd
:1005bc000004e0001600320000d4200031002000be
:1005cc00a7010700a1168000000420000080600035
:1005dc000000e00014003a0010c0b30001e8b700be
:1005ec0004c8bf000040e80004e8b70004c8bf001e
:1005fc00e94f50000200360010c0b30004e8b70009
:10060c0010c0b30000e8b70010c0b3002d003700d5
:10061c00a116800000042000008060000000e000b3
:10062c00010032000168ef00a116800000002200da
:10063c00008060000000e0001b003a0002c8bf0010
:10064c000004a2000004e0001700320000d42000d7
:10065c003100200082010700a1168000000022005a
:10066c00008060000000e00015003a0010c0b300ec
:10067c0002e8b70004c8bf00e14f500003003a0085
:10068c0090c0b30004e8b7000300370004c8bf00f3
:10069c000040e90004e8b70010c0b30000e8b70060
:1006ac0010c0b30007003700a11680000000220024
:1006bc00008060000000e000010032000268ef00e2
:1006cc000040eb000080fa00000006000200fa0077
:1006dc000040eb00004f78001e80fb0020168800c5
:1006ec0000122a00710020005d010700a8ff07001e
:1006fc000004e00002003a001e4fe800f6ff37004d
:10070c000080fa00000006000200fa0000c0eb00b6
:10071c00004f78001e80fb002016880000122a0073
:10072c00710020004e01070099ff07000004e00053
:10073c0002003a001e4fe900f6ff37000080fa0075
:10074c00000006000200fa000040eb00004f7800a9
:10075c001e80fb000000d100004078001e406800a5
:10076c00104798001e4090000080fb002016880067
:10077c0000122a00710020003901070084ff0700d5
:10078c000004e00002003a001e4fe800f0ff3700c2
:10079c000080fa00000006000200fa0000c0eb0026
:1007ac00004f78001e80fb000000d1000040780054
:1007bc001e406800104798001e4090000080fb000f
:1007cc002016880000122a00710020002401070066
:1007dc006fff07000004e00002003a001e4fe90022
:1007ec00f0ff37000080fa00000006000400fa0059
:1007fc000040eb00004f78000100370000000000c3
:10080c009e80fb00d0cc2c000008b8004308de0012
:10081c00104798001e81fb00d0cc2c000010b800b3
:10082c004308de006a00b9000000780000005100a7
:10083c00204798001e4090000080fb004400dd0023
:10084c00804078002e40900000c070003047980027
:10085c003e4090000080fb002016880000122a0009
:10086c0071002000fe00070049ff07000004e000b3
:10087c0008003a001e4fe80030c6b3009e407800d6
:10088c0080cf5000ddff36000040eb00004f7800b9
:10089c00dbff37000080fa00000006000400fa00bd
:1008ac0030c6b300004f7800010037000000000094
:1008bc009e80fb00d0cc2c000008b8004308de0062
:1008cc00104798001e81fb00d0cc2c000010b80003
:1008dc004308de006a00b9000000780000005100f7
:1008ec00204798001e409000c400dd002e40900070
:1008fc0000c04000304798003e4090000080fb0054
:10090c002016880000122a0071002000d400070075
:10091c001fff07000004e00007003a001e4fe9002b
:10092c001e407800e14f4000e0ff3a0030c6b300b3
:10093c00004f7800deff37000080fa000000060050
:10094c000200fa0010c0b3001047980070c0b3004a
:10095c00004f780003003700000000000100370052
:10096c00000000001e80fb002016880000122a00e8
:10097c0071002000ba00070005ff07000004e0002a
:10098c0016003a001e409000e14f50000a003a0059
:10099c001e40780000404000004f780000ceb300ad
:1009ac009e40780080cf5000ebff3a000040eb00f7
:1009bc0010479800ebff37001e80fb000000d100b1
:1009cc00004f78001e407800e74f5000e4ff3a00db
:1009dc0010c0b30010479800e2ff37000080fa0007
:1009ec00000006000600fa000040eb00004f780003
:1009fc000000eb00100798002600370010c0b30071
:100a0c00104798001e0090000000e8002007980096
:100a1c00100037001e4090001e4070000080fb004c
:100a2c00201688001e40900000404000104798009f
:100a3c0000122a007100200089000700d4fe070074
:100a4c000004e00017003a002e0090000000e800bf
:100a5c00200798002e009000e70f5000edff3400a7
:100a6c001e4090001e4f70001e80fb002016880058
:100a7c0000122a007100200079000700c4fe070054
:100a8c000004e00009003a001e0090000000e8009d
:100a9c00100798001e009000e70f5000d7ff34009d
:100aac0003003700000000000100370000000000c8
:100abc000080fa00000006000200fa0010c0b3002b
:100acc00004f780001003700000000001e80fb0082
:100adc004500de0000407800e14060001e80fb0015
:100aec004400de00004078006140600080c0680077
:100afc001e80fb004300de00004078006140600077
:100b0c0080c068001e80fb000000d100004078000f
:100b1c006140600080c068001e4078006140600049
:100b2c0000c06800104798001e80fb000000d10038
:100b3c0000407800804078001e4090000080fb0050
:100b4c004500dd000040780000c07000004f7800c8
:100b5c009e80fb00f00320000080600020168800bf
:100b6c0000122a00710020003d00070088fe0700db
:100b7c000004e000d4ff32000080fa000000060000
:100b8c000000fa000080eb0060198800c022ef0022
:100b9c000080eb00901688000068ef0004c8bf00ce
:100bac000080fb00e50f50001f003200e50f5000e5
:100bbc000c003c00e20f500015003200e20f500018
:100bcc0003003c00e10f50000f0032002000370002
:100bdc00e30f500010003200e40f50001000320000
:100bec001b003700e70f500013003200e70f5000d6
:100bfc000f003500e80f500011003200e90f5000d3
:100c0c001100320012003700b0fe07001000370050
:100c1c00bdfe07000e003700cafe07000c003700af
:100c2c00ddfe07000a003700f0fe07000800370061
:100c3c001aff07000600370041ff070004003700c9
:100c4c0068ff0700020037009bff07000000000050
:100c5c0000d420003100200001000700ceff370037
:020000040000fa
:100c6c00f03fb1000180b10006003500ee03090031
:100c7c0000000000403fb1000180b100fbff3d00cf
:100c8c001000b000203fb0000200350000800900c9
:080c9c0000000000000006004a
:020000040000fa
:100ca400040800000200000002000000010000002f
:100cb4000008000004000000000000000000000024
:020000040000fa
:020000040002f8
:04aff8009dfa0000be
:020000040000fa
:020000040002f8
:04affc007f3f000093
:00000001FF
