:020000040000fa
:080000000002040000000000f2
:020000040000fa
:0400080020030000d1
:020000040000fa
:04000c0020030000cd
:020000040000fa
:0400100020030000c9
:020000040000fa
:0400140020030000c5
:020000040000fa
:0400180020030000c1
:020000040000fa
:04001c0020030000bd
:020000040000fa
:0400200020030000b9
:020000040000fa
:0400240020030000b5
:020000040000fa
:0400280020030000b1
:020000040000fa
:04002c0020030000ad
:020000040000fa
:0400300020030000a9
:020000040000fa
:0400340020030000a5
:020000040000fa
:0400380020030000a1
:020000040000fa
:04003c00200300009d
:020000040000fa
:040040002003000099
:020000040000fa
:040044002003000095
:020000040000fa
:040048002003000091
:020000040000fa
:04004c00200300008d
:020000040000fa
:040050002003000089
:020000040000fa
:040054002003000085
:020000040000fa
:040058002003000081
:020000040000fa
:04005c00200300007d
:020000040000fa
:040060002003000079
:020000040000fa
:040064002003000075
:020000040000fa
:040068002003000071
:020000040000fa
:04006c00200300006d
:020000040000fa
:040070002003000069
:020000040000fa
:04007400c8020000be
:020000040000fa
:040078002003000061
:020000040000fa
:04007c00200300005d
:020000040000fa
:040080002003000059
:020000040000fa
:040084002003000055
:020000040000fa
:040088002003000051
:020000040000fa
:04008c00200300004d
:020000040000fa
:040090002003000049
:020000040000fa
:040094002003000045
:020000040000fa
:040098002003000041
:020000040000fa
:04009c00200300003d
:020000040000fa
:0400a0002003000039
:020000040000fa
:0400a4002003000035
:020000040000fa
:0400a8002003000031
:020000040000fa
:0400ac00200300002d
:020000040000fa
:0400b0002003000029
:020000040000fa
:0400b4002003000025
:020000040000fa
:0400b8002003000021
:020000040000fa
:0400bc00200300001d
:020000040000fa
:0400c0002003000019
:020000040000fa
:0400c4002003000015
:020000040000fa
:0400c8002003000011
:020000040000fa
:0400cc00200300000d
:020000040000fa
:0400d0002003000009
:020000040000fa
:0400d4002003000005
:020000040000fa
:0400d8002003000001
:020000040000fa
:0400dc0020030000fd
:020000040000fa
:0400e00020030000f9
:020000040000fa
:0400e40020030000f5
:020000040000fa
:0400e80020030000f1
:020000040000fa
:0400ec0020030000ed
:020000040000fa
:0400f00020030000e9
:020000040000fa
:0400f40020030000e5
:020000040000fa
:0400f80020030000e1
:020000040000fa
:0400fc0020030000dd
:020000040000fa
:0401000020030000d8
:020000040000fa
:0401040020030000d4
:020000040000fa
:0401080020030000d0
:020000040000fa
:04010c0020030000cc
:020000040000fa
:0401100020030000c8
:020000040000fa
:0401140020030000c4
:020000040000fa
:0401180020030000c0
:020000040000fa
:04011c0020030000bc
:020000040000fa
:0401200020030000b8
:020000040000fa
:0401240020030000b4
:020000040000fa
:0401280020030000b0
:020000040000fa
:04012c0020030000ac
:020000040000fa
:0401300020030000a8
:020000040000fa
:0401340020030000a4
:020000040000fa
:0402080020030000cf
:020000040000fa
:04020c0020030000cb
:020000040000fa
:0402100020030000c7
:020000040000fa
:0402140020030000c3
:020000040000fa
:0402180020030000bf
:020000040000fa
:04021c0020030000bb
:020000040000fa
:0402200020030000b7
:020000040000fa
:0402240020030000b3
:020000040000fa
:0402280020030000af
:020000040000fa
:04022c0020030000ab
:020000040000fa
:0402300020030000a7
:020000040000fa
:0402340020030000a3
:020000040000fa
:04023800200300009f
:020000040000fa
:04023c00200300009b
:020000040000fa
:040240002003000097
:020000040000fa
:040244002003000093
:020000040000fa
:04024800200300008f
:020000040000fa
:04024c00200300008b
:020000040000fa
:040250002003000087
:020000040000fa
:040254002003000083
:020000040000fa
:04025800200300007f
:020000040000fa
:04025c00200300007b
:020000040000fa
:040260002003000077
:020000040000fa
:040264002003000073
:020000040000fa
:04026800200300006f
:020000040000fa
:04026c00200300006b
:020000040000fa
:040270002003000067
:020000040000fa
:04027400c8020000bc
:020000040000fa
:04027800200300005f
:020000040000fa
:04027c00200300005b
:020000040000fa
:040280002003000057
:020000040000fa
:040284002003000053
:020000040000fa
:04028800200300004f
:020000040000fa
:04028c00200300004b
:020000040000fa
:040290002003000047
:020000040000fa
:040294002003000043
:020000040000fa
:04029800200300003f
:020000040000fa
:04029c00200300003b
:020000040000fa
:0402a0002003000037
:020000040000fa
:0402a4002003000033
:020000040000fa
:0402a800200300002f
:020000040000fa
:0402ac00200300002b
:020000040000fa
:0402b0002003000027
:020000040000fa
:0402b4002003000023
:020000040000fa
:0402b800200300001f
:020000040000fa
:0402bc00200300001b
:020000040000fa
:0402c0002003000017
:020000040000fa
:0402c4002003000013
:020000040000fa
:0402c800200300000f
:020000040000fa
:0402cc00200300000b
:020000040000fa
:0402d0002003000007
:020000040000fa
:0402d4002003000003
:020000040000fa
:0402d80020030000ff
:020000040000fa
:0402dc0020030000fb
:020000040000fa
:0402e00020030000f7
:020000040000fa
:0402e40020030000f3
:020000040000fa
:0402e80020030000ef
:020000040000fa
:0402ec0020030000eb
:020000040000fa
:0402f00020030000e7
:020000040000fa
:0402f40020030000e3
:020000040000fa
:0402f80020030000df
:020000040000fa
:0402fc0020030000db
:020000040000fa
:0403000020030000d6
:020000040000fa
:0403040020030000d2
:020000040000fa
:0403080020030000ce
:020000040000fa
:04030c0020030000ca
:020000040000fa
:0403100020030000c6
:020000040000fa
:0403140020030000c2
:020000040000fa
:0403180020030000be
:020000040000fa
:04031c0020030000ba
:020000040000fa
:0403200020030000b6
:020000040000fa
:0403240020030000b2
:020000040000fa
:0403280020030000ae
:020000040000fa
:04032c0020030000aa
:020000040000fa
:0403300020030000a6
:020000040000fa
:0403340020030000a2
:020000040000fa
:10040000ef8020000e7f22000e0188000000000017
:10041000000020000000e000020032000001200087
:100420002002880014000700870007000000e00099
:1004300003003a00c04f20000100200002003700f6
:100440000000200001002000810f70000100320038
:1004500014000700000020000000e000020032004d
:1004600000000200000000005a040200000000002a
:100470000040da000000fe004440a9000000200017
:100480000000e0000300320000002000a00188000e
:100490004440a800000006008a1f78008b1f7800e7
:1004a0000000060091018800800478000000eb0045
:1004b0001a003700e284440032a0b4009905ba0063
:1004c000e284440032a0b4009906ba00e2844400f9
:1004d00032a0b4000006eb00476fde00fd07b2005b
:1004e000636ce10003003a00ebff07000000eb0043
:1004f0000a003700606ce10004003a00005deb0088
:100500008b05e900fdff3e00040037006168e10053
:10051000010032000086eb000b00070019c7ba008b
:100520001905ba000e04e00003003a000a00e000da
:10053000e0ff3a0000000600fe07b2009e018800be
:100540008a047800f5ff3700395dba008b05e900b1
:100550000c003200295dba008b05e900080032006a
:100560000c00e00003003a00e284440032a0b40032
:10057000f5ff370019ddba008b05e900faff3a00f4
:100580008904e800e184440032a0b40000000600c1
:100590003600f800809fbe00829fbe00849fbe0090
:1005a000869fbe000000fa0000d420003100200029
:1005b00020010700a11680000000220000806000da
:1005c0000000e00003003a0010c0b30008e8b700e4
:1005d00009003700a11680000004200000806000a0
:1005e0000000e00003003a0020c0b30008e8b700b4
:1005f0000100370000000000a11680000004200068
:10060000008060000000e000fbff3200a1168000c7
:1006100000002200008060000000e000f6ff3200d1
:100620008660a9000080fa004f03be004f02be00a2
:100630004f01be004f00be003600f900004006002a
:100640000040da000000fe00000005000000e900a4
:100650008000eb00504088006140880000000600e8
:10066000d2f2270053c9240050408000614080002e
:100670000700070061014000e08148005240880007
:10068000634088004118de000100200000000600e1
:10069000020ab900001bb9000200b8008100420044
:0806a000810043000000060088
:020000040000fa
:1006a8000800fa001140800040332000808f50007d
:1006b80004003600803e200001002000008fbe00ac
:1006c8001b0037001140800070262000808f5000ea
:1006d8000400360000f4210001002000008fbe0055
:1006e8001300370011408000a0192000808f5000af
:1006f8000400360080bb200001002000008fbe00ef
:100708000b00370011408000d00c2000808f500073
:10071800040036000071220001002000008fbe0096
:10072800030037008038210001002000008fbe0040
:100738006000b800200798003107980009003700ca
:100748002003200001002000b80007002e009000c0
:10075800be00900061004000e0804800200798003b
:10076800310798002e009000be009000be0f500088
:10077800ae8f5800f2ff39000080fa000000060032
:100788000000fa00f0fd2f006019880050002000da
:1007980040198800000e2000001988002223ef006d
:1007a800f0f321002019880021e3a8000080fa0056
:1007b800000006000000fa002023a80040062000e0
:1007c80001002000990007002023a9000000000074
:1007d80000198000610060000000e000fcff3200aa
:1007e800001880000080fa00000006000000fa00ef
:1007f800f0ff07001040880004c8bf000080fb001d
:1008080020168800a6ff0700304080000000e000a6
:100818000a00320004c8bf000040400004e8b700e6
:10082800418020009140780000c8b30080cf50007c
:100838000c003a000628ef000a00370004c8bf0081
:100848000080fb000000d1000040780004e8b700f9
:1008580004c8bf00e14f500002003a001000200019
:10086800304088000080fa00000006000000fa000e
:10087800d0ff07001040880077ff0700f10f28001d
:10088800010060000000e00004003d000000e900f5
:1008980001f02f00008070000000e800201688009a
:1008a8007fff07000080fa00000006000000fa0041
:1008b800c022ef00c422ef00b1ff070010000700bc
:1008c800008020001b00070000c8bf000080fb005c
:1008d8000000e00003003200e10f50000300320086
:1008e80004003700c1ff070004003700dfff0700de
:1008f800020037000068ef0000000000f0ff37003a
:100908000000fa0091168000000422000100700027
:10091800901688006a60a80069e0a8006260a800d4
:1009280061e0a8008660a9009660a8000080fa002f
:10093800000006000200fa00000f780008c8bf0097
:10094800e14f50000d003a001e007800104078007a
:100958000004e000040032001e0078001040780017
:100968000040e9000100370010c0b3009e00780085
:10097800804878000868ef001300370008c8bf00f7
:10098800e24f500010003a001e0078001040780036
:100998000080fb008000e800100028000080600054
:1009a8000000e00004003d000000e900e1ff2f0026
:1009b800008070000000e800804078001e00780089
:1009c800014878000868ef000080fa00000006007f
:1009d8000000fa0008c8bf000080fb000000ea0021
:1009e8004f00de00004078000080fa00000006009a
:020000040000fa
:1009f80000080000040000000000000004080000d7
:100a080004000000020000000100010000000000d6
:100a18000808000002000000000000000a080000aa
:0c0a2800040000000000000000000000be
:020000040000fa
:100a3400f03fb1000180b10006003500ee0309006b
:100a440000000000403fb1000180b100fbff3d0009
:100a54001000b000203fb000020035000080090003
:080a6400000000000000060084
:020000040000fa
:020000040002f8
:04aff8009f7800003e
:020000040000fa
:020000040002f8
:04affc007f3f000093
:00000001FF
